:020000040800F2
:10000000280700209101000807150008F9100008D2
:1000100005150008DF0400080F17000800000000A5
:10002000000000000000000000000000B7160008FB
:10003000E104000800000000B5160008B916000829
:10004000AB010008AB010008AB010008AB010008E0
:10005000AB010008AB010008AB010008AB010008D0
:10006000AB010008AB010008AB010008AB010008C0
:10007000AB010008AB010008AB010008AB010008B0
:10008000AB010008AB010008AB010008AB010008A0
:10009000AB010008AB010008AB010008AB01000890
:1000A000AB010008AB010008AB010008AB01000880
:1000B000AB010008AB010008AB010008AB01000870
:1000C000AB010008AB010008AB010008AB01000860
:1000D000AB010008AB010008AB010008AB01000850
:1000E000AB010008AB010008AB01000800F002F80A
:1000F00000F03FF80AA090E8000C82448344AAF183
:100100000107DA4501D100F034F8AFF2090EBAE880
:100110000F0013F0010F18BFFB1A43F0010318473B
:10012000CC190000EC190000103A24BF78C878C13F
:10013000FAD8520724BF30C830C144BF04680C60ED
:10014000704700000023002400250026103A28BF35
:1001500078C1FBD8520728BF30C148BF0B60704739
:10016000752900F04980002070471FB51FBD10B5EC
:1001700010BD00F07AF91146FFF7F7FF01F0ECFA35
:1001800000F098F903B4FFF7F2FF03BC00F0A0F908
:100190000948804709480047FEE7FEE7FEE7FEE71B
:1001A000FEE7FEE7FEE7FEE7FEE7FEE70448054957
:1001B000054A064B704700000D170008ED000008C7
:1001C0002801002028070020280300202803002001
:1001D0000FB41CB5074B06AA7B44694600900598EE
:1001E00000F02BF90020694600F03AF91CBC5DF8DC
:1001F00014FB0000850200002DE9F04106460024B2
:1002000010687529314616A510D0AFF3008000287C
:1002100002DA404213A507E031688A0701D512A52A
:1002200002E0490704D511A5012401E0AFF30080E5
:1002300000210A2206F1240709E0B0FBF2FCB0FB22
:10024000F2F302FB1C00303078541846491C002899
:10025000F3D123462A463046BDE8F04100F08EB87F
:10026000000000002D0000002B0000002000000016
:100270002DE9F0410F460546002028622846E9682E
:10028000884770B3252805D0D5E901219047286A11
:10029000401CF2E7E9682846002688476C28044697
:1002A0000AD0682C08D04C2C35D06A2C31D0742C54
:1002B00031D07A2C2FD016E0E968064628468847C8
:1002C000B042044608D16C2E23D04FF480662846F5
:1002D000E9688847044606E06C2E03D04FF4807628
:1002E00001E01EE04026E4B1A4F14100192802D843
:1002F000203446F400663A46214628462E60FFF731
:100300002FFF60B1012808D0FF1D27F0070708372D
:10031000B4E78026DBE70026D9E73F1DAEE720469D
:10032000B2E7286ABDE8F0814FF0000200B513463D
:1003300094469646203922BFA0E80C50A0E80C5005
:10034000B1F12001BFF4F7AF090728BFA0E80C50B6
:1003500048BF0CC05DF804EB890028BF40F8042BAF
:1003600008BF704748BF20F8022B11F0804F18BF1C
:1003700000F8012B70477047704770472DE9F04730
:100380000D4699469246044600F124080168880605
:1003900004D5E06921F01001216000E00120A842AD
:1003A00001DD471B00E00027A1697A1902EB090073
:1003B000081AA0612078C00602D42046AFF300805E
:1003C000002608E0D4E901211AF806009047206AC7
:1003D000401C761C20624E45F4DB2078C0060AD50E
:1003E0002046AFF3008006E0D4E901213020904799
:1003F000206A401C2062381EA7F10107F4DC07E0E8
:10040000D4E9012118F805009047206A401C2062B9
:10041000281EA5F10105F3DC2046AFF3008020780B
:10042000000602D50220BDE8F0870120FBE70000AE
:1004300001694A1C02610878704700B58FB0CDE9A8
:1004400001310021059105497944CDE90310114698
:100450006846FFF70DFF0FB000BD0000E5FFFFFF8E
:100460000A6802F8010B0A607047754600F02CF824
:10047000AE4605006946534620F00700854618B091
:1004800020B5FFF793FEBDE820404FF000064FF087
:1004900000074FF000084FF0000B21F00701AC46B9
:1004A000ACE8C009ACE8C009ACE8C009ACE8C009D8
:1004B0008D46704710B50446AFF300802046BDE876
:1004C0001040FFF75FBE000000487047C8000020E2
:1004D00001491820ABBEFEE7260002007047FEE788
:1004E000704772B6FEE7000070B5044600F008F9E8
:1004F0000546601C02D004480078044400F000F96E
:10050000401BA042FAD370BD1C0000202DE9F84F1B
:10051000DFF8B8910024A9F1040B23460F2709F155
:10052000040AABF1040EC9E00125A5402A40AA4205
:100530007DD1674ED1F804C0ACEB0608B44532D08B
:1005400014DCBCF1030F3AD009DCBCF1000F2AD057
:10055000BCF1010F1CD0BCF1020F31D11DE0BCF188
:10056000110F17D0BCF1120F2AD119E0B8F5881F6E
:1005700019D006DCB8F5803F15D0B8F5801F1FD123
:1005800011E0B8F5001F0ED0B8F5041F18D10AE02D
:10059000CB6815E0CB681B1D12E0CB6808330FE079
:1005A000CB680C330CE08B682BB1012B4FF00803A8
:1005B00003D0456104E0042302E0056100E000236C
:1005C000FF2A01D8064601E000F104064FEA84053F
:1005D00001D9A5F12005D6F8008007FA05FC28EA24
:1005E0000C0803FA05F548EA0508C6F800804D68CE
:1005F000ED0062D5374DAE6946F00106AE61AD69DA
:1006000024F0030605F001050095334D06EB050CBB
:10061000DCF80850A607360F07FA06F825EA0805A1
:10062000DFF8B880404503D14FF0000817E044E000
:10063000DFF8AC80404502D14FF001080FE0DFF851
:10064000A480404502D14FF0020808E0DFF898800E
:10065000404502D14FF0030801E04FF0040808FACA
:1006600006F848EA0508CCF808804D68D9F800601B
:10067000ED024D4601D5164300E096432E604D68CD
:10068000DAF80060AD02554601D5164300E0964306
:100690002E604D68DBF80060AD035D4601D5164362
:1006A00000E096432E604D68DEF80060ED0375466D
:1006B00001D5164300E096432E60641C0D682A465F
:1006C000E5407FF431AFBDE8F88F00000804014039
:1006D000000011100010024000000140000801401D
:1006E000000C0140001001400014014080680840E7
:1006F00000D0012070470AB1016170470904FBE78F
:1007000001488068704700001C00002070B504009C
:1007100025D094F83D00002520B984F83C502046AF
:1007200000F04EF9242084F83D002068016821F093
:10073000010101602068016841F400410160206806
:10074000016821F40041016000F08EFA4D4A6168B1
:10075000914201D84C4900E04C49884201D2012025
:1007600070BD4B492368B0FBF1F15E6826F03F068F
:100770000E435E606368934206D94FF49673594303
:100780004FF47A73B1FBF3F12368491C1E6A26F01B
:100790003F06314319626168914210D84900401EFA
:1007A000B0FBF1F2521CC2F30B02042A01D2042066
:1007B00022E0B0FBF1F0401CC0F30B001CE0A2688B
:1007C000F2B301EBC10303EB0116431EB3FBF6F3D7
:1007D0005B1C43F480431B0549D092B301EBC1027B
:1007E00002EB0111401EB0FBF1F0401CC0F30B0006
:1007F00040F4804040F400402168CA694CF6FF7321
:100800009A431043C861D4E9071001432068026885
:1008100022F0C00211430160D4E9030101432068C2
:10082000826848F2FF339A4311438160D4E905019D
:1008300008432168CA6822F0FF021043C86001E043
:100840000EE016E02068016841F0010101602564B6
:10085000202084F83D00256384F83E50002070BDC0
:1008600001EB4106431EB3FBF6F35B1CB3E701202B
:10087000C2E701EB4101401EB0FBF1F0401CC0F3A8
:100880000B00B7E7A086010080841E0000093D0030
:1008900040420F002DE9F84F1F4690468A46044615
:1008A000DDF82890FFF72CFF054694F83D0020283E
:1008B0007FD11923012240492046009500F0AEFC6B
:1008C000002876D194F83C00012872D0012084F8E9
:1008D0003C0020680168C90703D1016841F00101AB
:1008E00001602068016821F400610160212084F822
:1008F0003D00102084F83E0000262664C4F82480C1
:100900006785608D20852D48E0622B464A4651461A
:10091000204600F009FC90B9206841698069009088
:1009200036E02A464946204600F01EFD50B1206CB4
:10093000042804D12068016841F40071016001209D
:10094000BDE8F88F606A216800780861606A401C21
:100950006062618D491E6185218D491E89B22185A4
:1009600022685369DB435B070BD451B100781061F7
:10097000606A401C6062608D401E6085208D401E54
:1009800020852A464946204600F01CFC0028CED18E
:10099000208D0028C5D154F83D0B016841F4007149
:1009A0000160202004F81E09E67766770020C7E77B
:1009B000FFE70220C4E70000020010000000FFFF74
:1009C00010B586B000210091019102910391006859
:1009D0000F4988421AD10F4CA06940F00800A0616D
:1009E000A069694600F008000490C0200090122021
:1009F0000190032003900848FFF788FDE06940F468
:100A00000010E061E06900F40010049006B010BD31
:100A10000054004000100240000C01400248816870
:100A200002781144816070471C000020074810B50F
:100A3000016841F010010160032000F067F80F2009
:100A400000F006F800F024F8002010BD002002405D
:100A500070B50D4D04464FF47A712878B1FBF0F073
:100A60000A490968B1FBF0F000F0C4FA48B9102C4B
:100A700007D200222146501E00F028F800206C60AA
:100A800070BD012070BD00001C0000202800002067
:100A90000C4808B5816941F001018161816901F06B
:100AA00001010091C16941F08051C161C06900F04C
:100AB000805000900448416821F0E06141F00071ED
:100AC000416008BD0010024000000140F0B40E4B30
:100AD0001B680C46C3F30223C3F10705042D00D99C
:100AE0000425191D072901D2002300E0DB1E012681
:100AF00006FA05F1491E214099409E40761E164097
:100B00003143F0BC00F004BE0CED00E0064900F0FB
:100B1000070208684FF6FF03184040EA0220034A24
:100B200010430860704700000CED00E00000FA057B
:100B30002DE9F0470F46050061D0434E306800F0C4
:100B40000700B84209D2306820F00700384330600F
:100B5000306800F00700B84251D128683B4C81074B
:100B600012D5400703D5606840F4E06060602878E3
:100B7000000703D5606840F4605060606068A96851
:100B800020F0F000084360602878C00728D068682B
:100B9000012810D02168022810D0890700292EDAF8
:100BA000616821F0030101436160FFF7A9FD804600
:100BB00041F288390DE021688903EFE78901EDE70B
:100BC000FFF79EFDA0EB0801494502D90320BDE8CF
:100BD000F0876068696800F00C00B0EB810FEFD11E
:100BE000306800F00700B8420BD9306820F00700E9
:100BF00038433060306800F00700B84201D001206F
:100C0000E5E72878400705D56068E96820F4E060EA
:100C1000084360602878000706D56068296920F4D9
:100C2000605040EAC100606000F02EF86168084A38
:100C3000C1F30311515CC8400649086006480068CA
:100C4000FFF706FF0020C2E700200240001002402C
:100C5000D41A000828000020200000200148006865
:100C600070470000280000200448054900684968D2
:100C7000044AC1F30221515CC8407047280000209B
:100C800000100240E41A00080E4A51680E4801F0B4
:100C90000C03042B11D0082B0FD10C48C1F3834354
:100CA000C903C05C0AD55168084AC1F34041921E8D
:100CB000515C054A5043B0FBF1F07047044948438A
:100CC000704700000010024000127A00C41A0008A9
:100CD00000093D002DE9F84F040070D02078C04D88
:100CE000C00749D06868C0F38100012807D0686850
:100CF000C0F38100022809D16868C00306D52868BE
:100D0000800339D560680028E7D035E06068B0F529
:100D1000803F0BD010B1B0F5A02F11D0286820F47F
:100D200080302860286820F4802002E0286840F4A1
:100D300080302860606890B1FFF7E2FC06460AE068
:100D4000286840F480202860F0E700BFFFF7D8FC57
:100D5000801B642873D828688003F7D50CE0FFF760
:100D6000CFFC064605E000BFFFF7CAFC801B6428E5
:100D7000F0D828688003F7D420789A4E80074FF087
:100D800001094FF0000839D5686810F00C0F07D042
:100D90006868C0F38100022809D16868C00306D4DE
:100DA0002868800714D52069012808D110E020693F
:100DB000B0B1C6F80090FFF7A3FC074605E00AE1D2
:100DC000FFF79EFCC01B0228C4D828688007F7D50F
:100DD0002868616920F0F80040EAC10028600DE051
:100DE000C6F80080FFF78CFC074604E0FFF788FC9C
:100DF000C01B022823D828688007F7D42078000772
:100E00002CD57948A169D9B1C0F80090FFF778FCDA
:100E1000074604E0FFF774FCC01B02280FD8686A7D
:100E20008007F7D571484FF4FA510068B0FBF1F034
:100E3000009000BF0098411E0091FAD20EE080E0C1
:100E4000C0F80080FFF75CFC074604E0FFF758FCA1
:100E5000C01B022875D8686A8007F7D4207840073D
:100E600060D5E8690027C00008D4E86940F08050E8
:100E7000E861E869012700F0805000905C48016853
:100E8000C90513D40168834641F480710160FFF7FE
:100E900037FC824606E000BFFFF732FCA0EB0A00F9
:100EA00064284ED8DBF80000C005F5D5E0680128BD
:100EB0000AD008B1052813D0286A20F00100286262
:100EC000286A20F0040002E0286A40F0010028624D
:100ED000E06841F2883B98B1FFF712FC82460BE0D4
:100EE000286A40F004002862EEE700BFFFF708FC24
:100EF000A0EB0A0159455AD8286A8007F6D50CE0BC
:100F0000FFF7FEFB824605E0FFF7FAFBA0EB0A01C4
:100F100059454CD8286A8007F6D41FB1E86920F0FB
:100F20008050E861E06988B36968C1F381010229F2
:100F300044D00228C6F8608004D0FFF7E1FB0446E5
:100F400038E034E0FFF7DCFB074604E0FFF7D8FBAE
:100F5000C01B02282BD828688001F7D4206AB0F57E
:100F6000803F05D16868A16820F4003008436860BC
:100F7000D4E908010843696821F4741108436860E2
:100F8000C6F86090FFF7BCFB044606E025E000BF12
:100F9000FFF7B6FB001B022809D828688001F7D5A7
:100FA0001BE000BFFFF7ACFB001B022802D90320A7
:100FB000BDE8F88F28688001F4D40EE00128F7D04E
:100FC0006868226A00F48031914204D1616A00F4B9
:100FD0007010884201D00120EAE70020E8E7000015
:100FE00000100240000042428004424228000020DB
:100FF0000070004010B5401EB0F1807F01D3012089
:1010000010BD4FF0E02460610F21601700F080FBFD
:101010000020A06107202061002010BD0648016863
:1010200041F080710160054800214160016841F094
:101030000101016070470000FCED00E0001000E0DD
:101040002DE9F05F284D4FF4807400222146284698
:10105000FFF751FB022000F06BFB012221462846DE
:10106000FFF749FB0A2000F063FB002221462846D7
:10107000FFF741FB47F230594C464FF0000B1B4F36
:101080006E1504E0641E10D3012000F051FB3146C0
:101090002846FFF72BFB0028F4D0DFF854A0DAF83D
:1010A00004804C460AE0641E05D240F2E730C7F8DF
:1010B00000B0BDE8F09F012000F03AFB3146284621
:1010C000FFF714FB0128EED0DAF80440FFF7C6FD65
:1010D0000849B0FBF1F1A4EB0800B0FBF1F03A21B4
:1010E0003860B0FBF1F0E4E7000801401800002090
:1010F000001000E040420F00FEE701684A69D24359
:1011000052050FD46FF480624A61002140F8301F0D
:10111000202242738173026942F00402026101736A
:101120000120704700207047F8B50446C06A1E468B
:101130000D461746082807D0012805D010F5803F36
:1011400002D0206B122804D12068016841F480711C
:101150000160134600224FF001112046009600F076
:101160005DF840B120680068C00502D54FF40070FA
:1011700020640320F8BD2069B0F5804F0ED0062012
:10118000216800EAD51040F0F000086133463A4685
:101190000B49204600F08AF878B902E005F0FE001D
:1011A00000E0E8B221680861054933463A46891FE4
:1011B000204600F07BF80028DCD00120F8BD0000BC
:1011C0000800010070B516460D4604461EE0204694
:1011D000FFF793FF08B1012070BD681C16D0FFF720
:1011E0008FFA801BA84200D885B920684069C043A7
:1011F00040070BD5002044F8300F20216173A07305
:10120000216941F0200121612073E4E720684069F1
:10121000C0434007DBD4002070BD00002DE9F0473B
:10122000984617460D460446C1F30746DDF8209060
:101230002AE000BFB8F1FF3F26D0FFF761FAA0EB2C
:101240000901414502D8B8F1000F1DD12068012ED7
:1012500016D0806925EA00000004000C12D000209E
:10126000B84211D1002044F8300F20216173A073DF
:10127000216941F02001216120730120BDE8F08740
:101280004069E7E70120EBE72068012E0AD080697A
:1012900025EA00000004000C06D00020B842C9D0A6
:1012A0000020EBE74069F3E70120F7E72DE9F0477D
:1012B000984616460D4604464FF000094FF0200AA6
:1012C000C1F3074723E020684069C043400515D4B7
:1012D0002068016841F40071016021686FF480604A
:1012E0004861C4F8309084F83DA084F83E90216CA9
:1012F00041F00401216484F83C9021E0701C06D088
:10130000FFF7FEF9A0EB0800B04203D816B1012F99
:101310001FD021E02068012F15D0806925EA000048
:101320000004000C18D000BF44F8309F84F80DA0D2
:1013300084F80E90216941F02001216184F80C901D
:101340000120BDE8F087406925EA00000004000C98
:10135000EAD12068406901E02068806925EA000040
:101360000004000CAFD1ECE770B516460D460446FC
:101370001EE02046FFF7C1FE08B1012070BD681CC9
:1013800016D0FFF7BDF9801BA84200D885B92068A8
:101390004069C04300060BD5002044F8300F2021DF
:1013A0006173A073216941F0200121612073E4E79A
:1013B00020684069C0430006DBD4002070BD0000F7
:1013C00070B5084D002405F1080600BF35F814106B
:1013D00056F824000022FFF78EF9641CA4B2032CF7
:1013E000F4D370BD0400002070B50446FFF7E8FF99
:1013F000002C15D00B4D012211462846FFF77BF932
:10140000022C04D3012202212846FFF774F9032C91
:1014100006D32846BDE8704001229102FFF76BB960
:1014200070BD0000000C01402DE9F04385B00024A0
:1014300021480094019402940394816941F00801C9
:101440008161816901F008010491816941F0040121
:1014500081618069DFF8648000F0040040F2034598
:101460000490002229464046FFF745F9DFF85090E6
:10147000AF10002239464846FFF73DF90095022695
:1014800001250396CDE9015469464046FFF73EF831
:1014900000970396CDE9015469464846FFF736F8B0
:1014A0006802CDE90004694648460294FFF72EF829
:1014B00005B0BDE8F083000000100240000C0140C0
:1014C000000801400D4810B50B4901600C4941600E
:1014D00000214FF480428160C0E9031241618161C3
:1014E000C1610162FFF712F9002803D0BDE8104086
:1014F000FEF7F7BF10BD000000540040740000204C
:10150000A0860100FEE7FEE770B50024002120461A
:1015100000F069F80025002000F0BAF86D1CEDB26B
:10152000802DF8D3641CE4B2082CEFD370BD10B545
:101530006420FEF7D9FFAE2000F098F8202000F0DC
:1015400095F8022000F092F8B02000F08FF8C82043
:1015500000F08CF8002000F089F8102000F086F8E8
:10156000402000F083F8812000F080F87F2000F018
:101570007DF8A12000F07AF8A62000F077F8A820E6
:1015800000F074F83F2000F071F8A42000F06EF82D
:10159000D32000F06BF8002000F068F8D52000F0B0
:1015A00065F8802000F062F8D92000F05FF8F120A3
:1015B00000F05CF8DA2000F059F8122000F056F83C
:1015C000DB2000F053F8402000F050F88D2000F0B0
:1015D0004DF8142000F04AF8AF2000F047F8BDE8BD
:1015E0001040FFF791BF10B5B0300C46C0B200F00C
:1015F0003DF804F00F0000F039F8102000EB141053
:10160000BDE8104000F032B870B5A2F120035F2BA6
:1016100000D32022203AD5B2FFF7E5FF064905EBBB
:101620004500002401EB4005285D00F031F8641C02
:10163000E4B2062CF8D370BD8818000870B51646C1
:101640000C4605460DE021462846FFF7DDFFA41DA8
:10165000E4B2761C7A2C04D96D1C0024EDB2072D5F
:1016600002D83278002AEED170BD00001CB50021EE
:101670008DF804108DF8050064200090022301AA63
:1016800078210248FFF706F91CBD00007400002015
:101690001CB540218DF804108DF8050064200090E1
:1016A000022301AA78210248FFF7F4F81CBD0000CC
:1016B0007400002070477047FFF7B0B910B590B0C4
:1016C00028216846FEF730FE14210AA8FEF72CFEFA
:1016D000022000900120049010200024059007941F
:1016E0006846FFF7F7FA08B172B6FEE70F20CDE9BA
:1016F0000A040C940D9400210AA80E94FFF718FA1E
:10170000002801D072B6FEE710B010BD7047FEE7AA
:101710000907090E002804DB00F1E02080F800141E
:10172000704700F00F0000F1E02080F8141D7047B2
:1017300070B5074C05466668FFF790FA0549B0FB9F
:10174000F1F169436068801B8842FBD370BD0000E3
:10175000001000E040420F00FFF768F9FFF7AEFF0E
:10176000FFF762FEFFF7AEFEFFF758FCFFF728FE1B
:10177000FFF7DDFEFFF7C8FE00212AA20846FFF7AB
:101780005DFF2CA200210220FFF758FF6420FEF726
:10179000ABFE40F2E735294C294E6F1CFFF750FC99
:1017A0002060A84201D0322801D9002008E01E287C
:1017B00001D9012004E00F2801D9022000E0032014
:1017C000FFF712FE1FA12348FEF702FD2268AA427E
:1017D00005D1204820A11830FEF7FAFC04E01D488E
:1017E00021A11830FEF7F4FC1A4823A130303268EA
:1017F000FEF7EEFCFFF788FE0021164A0846FFF7C9
:101800001DFF144A002118320220FFF717FF114A6A
:10181000002130320420FFF711FF3846FEF764FE46
:10182000BCE7000048432D535230342052656164B8
:1018300079200000676F676F676F0000000000206D
:101840001800002048432D53523034204D657465F4
:10185000720000002C000020446973743A204E6F1F
:10186000204563686F000000446973743A20256C5A
:101870007520636D000000004563686F3A20256C99
:1018800075207573000000000000000000000000DB
:101890005F000000000700070000147F147F1400A1
:1018A000242A7F2A12002313086462003649552235
:1018B0005000000503000000001C22410000004110
:1018C000221C000014083E08140008083E08080006
:1018D00000503000000008080808080000606000A0
:1018E00000002010080402003E5149453E0000421D
:1018F0007F4000004261514946002141454B310083
:101900001814127F10002745454539003C4A4949C3
:10191000300001710905030036494949360006497E
:1019200049291E000036360000000056360000002F
:10193000081422410000141414141400004122144D
:101940000800020151090600324979413E007E112A
:1019500011117E007F49494936003E414141220034
:101960007F4141221C007F49494941007F09090903
:1019700001003E4149497A007F0808087F00004184
:101980007F4100002040413F01007F0814224100B8
:101990007F40404040007F020C027F007F0408101F
:1019A0007F003E4141413E007F09090906003E415A
:1019B00051215E007F0919294600464949493100F5
:1019C00001017F0101003F4040403F001F204020B7
:1019D0001F003F4038403F006314081463000708AD
:1019E00070080700615149454300007F41410000F4
:1019F0000204081020000041417F0000040201029F
:101A00000400404040404000000102040000205417
:101A1000545478007F4844443800384444442000FB
:101A2000384444487F00385454541800087E090153
:101A300002000C5252523E007F0804047800004419
:101A40007D4000002040443D00007F1028440000FD
:101A500000417F4000007C04180478007C080404E6
:101A600078003844444438007C14141408000814E6
:101A700014187C007C0804040800485454542000C6
:101A8000043F444020003C4040207C001C2040207B
:101A90001C003C4030403C004428102844000C50BE
:101AA00050503C004464544C44000008364100004F
:101AB00000007F0000000041360800000804081004
:101AC0000800010202030405060708090A0B0C0DB1
:101AD0000E0F1010000000000000000001020304BF
:101AE0000607080900000000010203040C1B00089F
:101AF000000000202C00000028010008381B00080E
:101B00002C000020FC06000044010008000000003A
:101B10000100020000040000000C0140000C014024
:101B2000000C014000000000010000001000000057
:081B30000000000000127A0021
:04000005080000ED02
:00000001FF
